{
  "contractName": "AMM",
  "abi": [
    {
      "inputs": [],
      "stateMutability": "nonpayable",
      "type": "constructor"
    },
    {
      "anonymous": false,
      "inputs": [
        {
          "indexed": false,
          "internalType": "uint256",
          "name": "DAI",
          "type": "uint256"
        }
      ],
      "name": "DaiRefund",
      "type": "event"
    },
    {
      "anonymous": false,
      "inputs": [
        {
          "indexed": false,
          "internalType": "uint256",
          "name": "ETH",
          "type": "uint256"
        }
      ],
      "name": "EthRefund",
      "type": "event"
    },
    {
      "anonymous": false,
      "inputs": [
        {
          "indexed": false,
          "internalType": "uint256",
          "name": "_n",
          "type": "uint256"
        }
      ],
      "name": "Log",
      "type": "event"
    },
    {
      "inputs": [],
      "name": "dai_count",
      "outputs": [
        {
          "internalType": "uint256",
          "name": "",
          "type": "uint256"
        }
      ],
      "stateMutability": "view",
      "type": "function",
      "constant": true
    },
    {
      "inputs": [],
      "name": "eth_count",
      "outputs": [
        {
          "internalType": "uint256",
          "name": "",
          "type": "uint256"
        }
      ],
      "stateMutability": "view",
      "type": "function",
      "constant": true
    },
    {
      "inputs": [],
      "name": "pool_size",
      "outputs": [
        {
          "internalType": "uint256",
          "name": "",
          "type": "uint256"
        }
      ],
      "stateMutability": "view",
      "type": "function",
      "constant": true
    },
    {
      "inputs": [
        {
          "internalType": "uint256",
          "name": "_eth",
          "type": "uint256"
        },
        {
          "internalType": "uint256",
          "name": "_dai",
          "type": "uint256"
        }
      ],
      "name": "provide",
      "outputs": [],
      "stateMutability": "nonpayable",
      "type": "function"
    },
    {
      "inputs": [
        {
          "internalType": "uint256",
          "name": "_eth",
          "type": "uint256"
        }
      ],
      "name": "swapEthForDai",
      "outputs": [],
      "stateMutability": "nonpayable",
      "type": "function"
    },
    {
      "inputs": [
        {
          "internalType": "uint256",
          "name": "_dai",
          "type": "uint256"
        }
      ],
      "name": "swapDaiForEth",
      "outputs": [],
      "stateMutability": "nonpayable",
      "type": "function"
    },
    {
      "inputs": [],
      "name": "getLpBal",
      "outputs": [
        {
          "internalType": "uint256",
          "name": "",
          "type": "uint256"
        }
      ],
      "stateMutability": "view",
      "type": "function",
      "constant": true
    },
    {
      "inputs": [],
      "name": "currentEthPerDai",
      "outputs": [
        {
          "internalType": "uint256",
          "name": "",
          "type": "uint256"
        }
      ],
      "stateMutability": "view",
      "type": "function",
      "constant": true
    },
    {
      "inputs": [],
      "name": "currentDaiPerEth",
      "outputs": [
        {
          "internalType": "uint256",
          "name": "",
          "type": "uint256"
        }
      ],
      "stateMutability": "view",
      "type": "function",
      "constant": true
    },
    {
      "inputs": [],
      "name": "rugPull",
      "outputs": [],
      "stateMutability": "nonpayable",
      "type": "function"
    }
  ],
  "bytecode": "0x6080604052600080556000600155600160025534801561001e57600080fd5b5033600460006101000a81548173ffffffffffffffffffffffffffffffffffffffff021916908373ffffffffffffffffffffffffffffffffffffffff160217905550600160008190555060018081905550610c748061007e6000396000f3fe608060405234801561001057600080fd5b506004361061009e5760003560e01c8063cd1ca9a311610066578063cd1ca9a314610123578063db014ed914610141578063dd7bad6a1461015f578063e8c3c54f1461017b578063f93a33e3146101975761009e565b80630e2d0cd3146100a35780631a506f46146100bf5780632190dfd0146100dd57806394a85b37146100e7578063bc8c80a914610105575b600080fd5b6100bd60048036038101906100b891906106dd565b6101b5565b005b6100c76102ca565b6040516100d49190610719565b60405180910390f35b6100e56102d0565b005b6100ef610373565b6040516100fc9190610719565b60405180910390f35b61010d610389565b60405161011a9190610719565b60405180910390f35b61012b61038f565b6040516101389190610719565b60405180910390f35b6101496103d6565b6040516101569190610719565b60405180910390f35b610179600480360381019061017491906106dd565b6103ed565b005b61019560048036038101906101909190610734565b610502565b005b61019f61069c565b6040516101ac9190610719565b60405180910390f35b600081116101f8576040517f08c379a00000000000000000000000000000000000000000000000000000000081526004016101ef906107f7565b60405180910390fd5b6000805490506000600154838361020f9190610846565b61021991906108cf565b905081811061025d576040517f08c379a000000000000000000000000000000000000000000000000000000000815260040161025490610972565b60405180910390fd5b8060008082825461026e9190610992565b92505081905550826001600082825461028791906109c6565b925050819055507f285bfb327d51e8aa0bfa4092cf0d6fb0ddd784ce463cc3ae819ddf49ee56700d816040516102bd9190610719565b60405180910390a1505050565b60025481565b33600460009054906101000a900473ffffffffffffffffffffffffffffffffffffffff1673ffffffffffffffffffffffffffffffffffffffff168173ffffffffffffffffffffffffffffffffffffffff1614610361576040517f08c379a000000000000000000000000000000000000000000000000000000000815260040161035890610a8e565b60405180910390fd5b60008081905550600060018190555050565b6000805460015461038491906108cf565b905090565b60005481565b6000600360003373ffffffffffffffffffffffffffffffffffffffff1673ffffffffffffffffffffffffffffffffffffffff16815260200190815260200160002054905090565b60006001546000546103e891906108cf565b905090565b60008111610430576040517f08c379a000000000000000000000000000000000000000000000000000000000815260040161042790610b20565b60405180910390fd5b600060015490506000805483836104479190610846565b61045191906108cf565b9050818110610495576040517f08c379a000000000000000000000000000000000000000000000000000000000815260040161048c90610972565b60405180910390fd5b80600160008282546104a79190610992565b92505081905550826000808282546104bf91906109c6565b925050819055507f52756b87dda692765328265da7529ff1888caaaaff8c78c4a6b073b5fba451e4816040516104f59190610719565b60405180910390a1505050565b60008211610545576040517f08c379a000000000000000000000000000000000000000000000000000000000815260040161053c90610b8c565b60405180910390fd5b60015460005461055591906108cf565b818361056191906108cf565b146105a1576040517f08c379a000000000000000000000000000000000000000000000000000000000815260040161059890610c1e565b60405180910390fd5b6000826002546000546105b491906108cf565b6105be9190610846565b90507f909c57d5c6ac08245cf2a6de3900e2b868513fa59099b92b27d8db823d92df9c816040516105ef9190610719565b60405180910390a180600360003373ffffffffffffffffffffffffffffffffffffffff1673ffffffffffffffffffffffffffffffffffffffff168152602001908152602001600020600082825461064691906109c6565b92505081905550806002600082825461065f91906109c6565b925050819055508260008082825461067791906109c6565b92505081905550816001600082825461069091906109c6565b92505081905550505050565b60015481565b600080fd5b6000819050919050565b6106ba816106a7565b81146106c557600080fd5b50565b6000813590506106d7816106b1565b92915050565b6000602082840312156106f3576106f26106a2565b5b6000610701848285016106c8565b91505092915050565b610713816106a7565b82525050565b600060208201905061072e600083018461070a565b92915050565b6000806040838503121561074b5761074a6106a2565b5b6000610759858286016106c8565b925050602061076a858286016106c8565b9150509250929050565b600082825260208201905092915050565b7f44616920616d6f756e74206174746163686564206d757374206265206d6f726560008201527f207468616e207a65726f21000000000000000000000000000000000000000000602082015250565b60006107e1602b83610774565b91506107ec82610785565b604082019050919050565b60006020820190508181036000830152610810816107d4565b9050919050565b7f4e487b7100000000000000000000000000000000000000000000000000000000600052601160045260246000fd5b6000610851826106a7565b915061085c836106a7565b9250817fffffffffffffffffffffffffffffffffffffffffffffffffffffffffffffffff048311821515161561089557610894610817565b5b828202905092915050565b7f4e487b7100000000000000000000000000000000000000000000000000000000600052601260045260246000fd5b60006108da826106a7565b91506108e5836106a7565b9250826108f5576108f46108a0565b5b828204905092915050565b7f5468697320706f6f6c206973206e6f7420726561647920666f7220612074726160008201527f6465206f6620746861742073697a652100000000000000000000000000000000602082015250565b600061095c603083610774565b915061096782610900565b604082019050919050565b6000602082019050818103600083015261098b8161094f565b9050919050565b600061099d826106a7565b91506109a8836106a7565b9250828210156109bb576109ba610817565b5b828203905092915050565b60006109d1826106a7565b91506109dc836106a7565b9250827fffffffffffffffffffffffffffffffffffffffffffffffffffffffffffffffff03821115610a1157610a10610817565b5b828201905092915050565b7f4f6e6c7920746865206f776e6572206d617920706572666f726d20746869732060008201527f66756e6374696f6e210000000000000000000000000000000000000000000000602082015250565b6000610a78602983610774565b9150610a8382610a1c565b604082019050919050565b60006020820190508181036000830152610aa781610a6b565b9050919050565b7f457468657220616d6f756e74206174746163686564206d757374206265206d6f60008201527f7265207468616e207a65726f2100000000000000000000000000000000000000602082015250565b6000610b0a602d83610774565b9150610b1582610aae565b604082019050919050565b60006020820190508181036000830152610b3981610afd565b9050919050565b7f457468657220616d6f756e742063616e6e6f74206265207a65726f2100000000600082015250565b6000610b76601c83610774565b9150610b8182610b40565b602082019050919050565b60006020820190508181036000830152610ba581610b69565b9050919050565b7f4d757374206861766520657175616c7320616d6f756e74732f76616c7565732060008201527f6f662070726f7669646564206173736574732100000000000000000000000000602082015250565b6000610c08603383610774565b9150610c1382610bac565b604082019050919050565b60006020820190508181036000830152610c3781610bfb565b905091905056fea2646970667358221220818b2a5a034087a7f06a81c4f83b9b0f90f22791b144336e861abcf2cc18809564736f6c634300080e0033",
  "immutableReferences": {},
  "source": "// SPDX-License-Identifier: UNLICENSED\r\n\r\npragma solidity >=0.7.0 <0.9.0;\r\n\r\n//Automated Market Maker, built for education purposes only.\r\ncontract AMM {\r\n\r\n    //Tracks pool size for Eth, Dai, and LP\r\n    uint public eth_count = 0;\r\n    uint public dai_count = 0;\r\n    uint public pool_size = 1;\r\n\r\n    mapping(address => uint) balances;\r\n    address payable owner;\r\n\r\n    //Modifier that requires that the owner of the contract is the caller\r\n    //      (Useless for now since it is used only once)\r\n    modifier onlyOwner(address payable addr) {\r\n        require(addr == owner, \"Only the owner may perform this function!\");\r\n        _;\r\n    }\r\n\r\n    event Log(uint _n);             //General Log event for low-level debugging\r\n    event EthRefund(uint ETH);      //Replacement for sending Eth to the sender\r\n    event DaiRefund(uint DAI);      //Replacement for sending Dai to the sender\r\n\r\n    constructor() {\r\n        //Set the owner, and pad the pool size a bit\r\n        owner = payable(msg.sender);\r\n        eth_count = 1;\r\n        dai_count = 1;\r\n    }\r\n\r\n    //Provide tokens to the pool\r\n    function provide(uint _eth, uint _dai) public {\r\n        //Require that value is attached, and that the ratio is in congruence with pool ratio\r\n        require(_eth > 0, \"Ether amount cannot be zero!\");\r\n        require((_eth / _dai) == (eth_count / dai_count), \"Must have equals amounts/values of provided assets!\");\r\n\r\n        //Compute the amount of lp tokens to award the provider\r\n        uint lp_val = (eth_count / pool_size) * _eth;\r\n        emit Log(lp_val);\r\n\r\n        //Update the balance of the provider, and update the pool size\r\n        balances[msg.sender] += lp_val;\r\n        pool_size += lp_val;\r\n        //Make the deposit\r\n        eth_count += _eth;\r\n        dai_count += _dai;\r\n    }\r\n\r\n    function swapEthForDai(uint _eth) external {\r\n        //Make sure the value is not zero\r\n        require(_eth > 0, \"Ether amount attached must be more than zero!\");\r\n\r\n        //Compute the number of Dai that the given Eth is worth\r\n        uint dc = dai_count;\r\n        uint dai_val = ((dc * _eth) / eth_count);\r\n        require(dai_val < dc, \"This pool is not ready for a trade of that size!\");\r\n\r\n        //Update the balances\r\n        dai_count -= dai_val;\r\n        eth_count += _eth;\r\n\r\n        //Give sender the Dai\r\n        emit DaiRefund(dai_val);\r\n    }\r\n\r\n    function swapDaiForEth(uint _dai) external {\r\n        //Make sure the value is not zero\r\n        require(_dai > 0, \"Dai amount attached must be more than zero!\");\r\n\r\n        //Compute the number of Eth that the given Dai is worth\r\n        uint ec = eth_count;\r\n        uint eth_val = ((ec * _dai) / dai_count);\r\n        require(eth_val < ec, \"This pool is not ready for a trade of that size!\");\r\n\r\n        //Update the balances\r\n        eth_count -= eth_val;\r\n        dai_count += _dai;\r\n\r\n        //Give sender the Eth\r\n        emit EthRefund(eth_val);\r\n    }\r\n\r\n    function getLpBal() external view returns(uint) {\r\n        //Return the current LP Token holdings of the requester\r\n        return balances[msg.sender];\r\n    }\r\n\r\n    function currentEthPerDai() external view returns(uint) {\r\n        //Returns the ratio of Eth to Dai in the pool\r\n        return eth_count / dai_count;\r\n    }\r\n\r\n    function currentDaiPerEth() external view returns(uint) {\r\n        //Returns the ratio of Dai to eth in the pool\r\n        return dai_count / eth_count;\r\n    }\r\n\r\n    function rugPull() public onlyOwner(payable(msg.sender)) {\r\n        //Drain all funds to the owner\r\n        eth_count = 0;\r\n        dai_count = 0;\r\n    }\r\n\r\n}\r\n",
  "sourcePath": "C:\\Users\\mbwil\\Documents\\Programming\\Solidity\\Truffle\\MarketMaker\\contracts\\AMM.sol",
  "compiler": {
    "name": "solc",
    "version": "0.8.14+commit.80d49f37.Emscripten.clang"
  },
  "schemaVersion": "3.4.7",
  "updatedAt": "2022-08-22T22:20:34.071Z",
  "networkType": "ethereum",
  "devdoc": {
    "kind": "dev",
    "methods": {},
    "version": 1
  },
  "userdoc": {
    "kind": "user",
    "methods": {},
    "version": 1
  }
}